{
  "transactions": [
    {
      "hash": "0xcb86d145ee3e34a495a41f275b44c86d7da0ea3e4ffe31c476fa8aefbd95c7e1",
      "transactionType": "CALL",
      "contractName": null,
      "contractAddress": "0xbafbd1ebdb6cb8a11fbac4dbd06676459fa837fb",
      "function": "initialize()",
      "arguments": [],
      "transaction": {
        "from": "0x4a2578679c9a9901844380c7340e074045e75853",
        "to": "0xbafbd1ebdb6cb8a11fbac4dbd06676459fa837fb",
        "gas": "0x1670f",
        "value": "0x0",
        "input": "0x8129fc1c",
        "nonce": "0xa2",
        "chainId": "0xaa36a7"
      },
      "additionalContracts": [],
      "isFixedGasLimit": false
    },
    {
      "hash": "0xc0993a3ed50987c230eaa6fb0f7d03026dfaef9744ef39810c32a894f8f86167",
      "transactionType": "CREATE",
      "contractName": "Destroyer",
      "contractAddress": "0xe23747df811c7800b12e0cb8ff6d44e22991a87b",
      "function": null,
      "arguments": null,
      "transaction": {
        "from": "0x4a2578679c9a9901844380c7340e074045e75853",
        "gas": "0x19d04",
        "value": "0x0",
        "input": "0x6080604052348015600e575f5ffd5b50608180601a5f395ff3fe6080604052348015600e575f5ffd5b50600436106026575f3560e01c806383197ef014602a575b5f5ffd5b60306032565b005b3373ffffffffffffffffffffffffffffffffffffffff16fffea26469706673582212203d199de23192660b4f6fed1f6371d9500fa4d404b775f697de5e8e5c37ba083b64736f6c634300081e0033",
        "nonce": "0xa3",
        "chainId": "0xaa36a7"
      },
      "additionalContracts": [],
      "isFixedGasLimit": false
    },
    {
      "hash": "0x07fdfb665bf4f1a312cc7129e58112ebe36dd88e6497692cf3bbdba3812d0fdc",
      "transactionType": "CALL",
      "contractName": null,
      "contractAddress": "0xbafbd1ebdb6cb8a11fbac4dbd06676459fa837fb",
      "function": "upgradeToAndCall(address,bytes)",
      "arguments": [
        "0xe23747Df811c7800B12e0Cb8FF6D44e22991A87b",
        "0x83197ef0"
      ],
      "transaction": {
        "from": "0x4a2578679c9a9901844380c7340e074045e75853",
        "to": "0xbafbd1ebdb6cb8a11fbac4dbd06676459fa837fb",
        "gas": "0x128bc",
        "value": "0x0",
        "input": "0x4f1ef286000000000000000000000000e23747df811c7800b12e0cb8ff6d44e22991a87b0000000000000000000000000000000000000000000000000000000000000040000000000000000000000000000000000000000000000000000000000000000483197ef000000000000000000000000000000000000000000000000000000000",
        "nonce": "0xa4",
        "chainId": "0xaa36a7"
      },
      "additionalContracts": [],
      "isFixedGasLimit": false
    }
  ],
  "receipts": [
    {
      "status": "0x1",
      "cumulativeGasUsed": "0xc974d3",
      "logs": [],
      "logsBloom": "0x00000000000000000000000000000000000000000000000000000000000000000000000000000000000000000000000000000000000000000000000000000000000000000000000000000000000000000000000000000000000000000000000000000000000000000000000000000000000000000000000000000000000000000000000000000000000000000000000000000000000000000000000000000000000000000000000000000000000000000000000000000000000000000000000000000000000000000000000000000000000000000000000000000000000000000000000000000000000000000000000000000000000000000000000000000000",
      "type": "0x2",
      "transactionHash": "0xcb86d145ee3e34a495a41f275b44c86d7da0ea3e4ffe31c476fa8aefbd95c7e1",
      "transactionIndex": "0x58",
      "blockHash": "0xb6c950929a9d43a2d2f11d5a6a0f0adc4c59c65fb0bb51ddee4d4a23edb1f0d6",
      "blockNumber": "0x90f6f5",
      "gasUsed": "0x103f4",
      "effectiveGasPrice": "0xf424c",
      "from": "0x4a2578679c9a9901844380c7340e074045e75853",
      "to": "0xbafbd1ebdb6cb8a11fbac4dbd06676459fa837fb",
      "contractAddress": null
    },
    {
      "status": "0x1",
      "cumulativeGasUsed": "0xcab288",
      "logs": [],
      "logsBloom": "0x00000000000000000000000000000000000000000000000000000000000000000000000000000000000000000000000000000000000000000000000000000000000000000000000000000000000000000000000000000000000000000000000000000000000000000000000000000000000000000000000000000000000000000000000000000000000000000000000000000000000000000000000000000000000000000000000000000000000000000000000000000000000000000000000000000000000000000000000000000000000000000000000000000000000000000000000000000000000000000000000000000000000000000000000000000000",
      "type": "0x2",
      "transactionHash": "0xc0993a3ed50987c230eaa6fb0f7d03026dfaef9744ef39810c32a894f8f86167",
      "transactionIndex": "0x59",
      "blockHash": "0xb6c950929a9d43a2d2f11d5a6a0f0adc4c59c65fb0bb51ddee4d4a23edb1f0d6",
      "blockNumber": "0x90f6f5",
      "gasUsed": "0x13db5",
      "effectiveGasPrice": "0xf424c",
      "from": "0x4a2578679c9a9901844380c7340e074045e75853",
      "to": null,
      "contractAddress": "0xe23747df811c7800b12e0cb8ff6d44e22991a87b"
    },
    {
      "status": "0x1",
      "cumulativeGasUsed": "0xcb895d",
      "logs": [],
      "logsBloom": "0x00000000000000000000000000000000000000000000000000000000000000000000000000000000000000000000000000000000000000000000000000000000000000000000000000000000000000000000000000000000000000000000000000000000000000000000000000000000000000000000000000000000000000000000000000000000000000000000000000000000000000000000000000000000000000000000000000000000000000000000000000000000000000000000000000000000000000000000000000000000000000000000000000000000000000000000000000000000000000000000000000000000000000000000000000000000",
      "type": "0x2",
      "transactionHash": "0x07fdfb665bf4f1a312cc7129e58112ebe36dd88e6497692cf3bbdba3812d0fdc",
      "transactionIndex": "0x5a",
      "blockHash": "0xb6c950929a9d43a2d2f11d5a6a0f0adc4c59c65fb0bb51ddee4d4a23edb1f0d6",
      "blockNumber": "0x90f6f5",
      "gasUsed": "0xd6d5",
      "effectiveGasPrice": "0xf424c",
      "from": "0x4a2578679c9a9901844380c7340e074045e75853",
      "to": "0xbafbd1ebdb6cb8a11fbac4dbd06676459fa837fb",
      "contractAddress": null
    }
  ],
  "libraries": [],
  "pending": [],
  "returns": {},
  "timestamp": 1761554857534,
  "chain": 11155111,
  "commit": "0ea575f"
}